:040000005EEF0AF0B5
:10060000003F065B4F666D7D077F6F777C395E79B3
:1006100071554C4452535841425973496D70726937
:100620006D696E646F2E2E2E00496D707265737346
:100630006F72613A00436F706961733A000002BEE5
:100640002DEF03F0025007E1080E015CD8B02BEF4C
:1006500003F02DEF03F057EF03F003500410D8B46C
:1006600034EF03F036EF03F046EF03F001C005F07E
:10067000010E066E052A3FEF03F0D8900636052ED0
:100680003DEF03F00650921245EF04F001C005F073
:10069000010E066E052A4FEF03F0D8900636052EA0
:1006A0004DEF03F00650FF0A921645EF04F002BE2C
:1006B00065EF03F0025007E1100E015CD8B063EF64
:1006C00003F065EF03F093EF03F003500410D8B488
:1006D0006CEF03F06EEF03F080EF03F001C005F064
:1006E000F80E0526010E066E052A79EF03F0D89064
:1006F0000636052E77EF03F00650931245EF04F00F
:1007000001C005F0F80E0526010E066E052A8BEFD6
:1007100003F0D8900636052E89EF03F00650FF0A45
:10072000931645EF04F002BEA1EF03F0025007E17B
:10073000180E015CD8B09FEF03F0A1EF03F0CFEFEC
:1007400003F003500410D8B4A8EF03F0AAEF03F0AD
:10075000BCEF03F001C005F0F00E0526010E066E99
:10076000052AB5EF03F0D8900636052EB3EF03F057
:100770000650941245EF04F001C005F0F00E052676
:10078000010E066E052AC7EF03F0D8900636052E37
:10079000C5EF03F00650FF0A941645EF04F002BEC1
:1007A000DDEF03F0025007E1200E015CD8B0DBEF73
:1007B00003F0DDEF03F00BEF04F003500410D8B4A6
:1007C000E4EF03F0E6EF03F0F8EF03F001C005F00B
:1007D000E80E0526010E066E052AF1EF03F0D8900B
:1007E0000636052EEFEF03F00650951245EF04F0A4
:1007F00001C005F0E80E0526010E066E052A03EF7E
:1008000004F0D8900636052E01EF04F00650FF0ADA
:10081000951645EF04F002BE19EF04F0025007E10F
:10082000280E015CD8B017EF04F019EF04F045EF83
:1008300004F003500410D8B420EF04F022EF04F0C9
:1008400034EF04F001C005F0E00E0526010E066E3F
:10085000052A2DEF04F0D8900636052E2BEF04F074
:100860000650961245EF04F001C005F0E00E052693
:10087000010E066E052A3FEF04F0D8900636052ECD
:100880003DEF04F00650FF0A9616120002BE54EF28
:1008900004F0025007E1080E015CD8B052EF04F0FA
:1008A00054EF04F07EEF04F003500410D8B45BEF73
:1008B00004F05DEF04F06DEF04F001C005F0010EEF
:1008C000066E052A66EF04F0D8900636052E64EF12
:1008D00004F0065080126CEF05F001C005F0010E27
:1008E000066E052A76EF04F0D8900636052E74EFD2
:1008F00004F00650FF0A80166CEF05F002BE8CEF84
:1009000004F0025007E1100E015CD8B08AEF04F049
:100910008CEF04F0BAEF04F0F80E0126FF0E02226D
:1009200003500410D8B497EF04F099EF04F0A9EF46
:1009300004F001C005F0010E066E052AA2EF04F0D6
:10094000D8900636052EA0EF04F0065081126CEF09
:1009500005F001C005F0010E066E052AB2EF04F0A5
:10096000D8900636052EB0EF04F00650FF0A811627
:100970006CEF05F002BEC8EF04F0025007E1180E5C
:10098000015CD8B0C6EF04F0C8EF04F0F6EF04F055
:10099000F00E0126FF0E022203500410D8B4D3EF4C
:1009A00004F0D5EF04F0E5EF04F001C005F0010E0E
:1009B000066E052ADEEF04F0D8900636052EDCEF31
:1009C00004F0065082126CEF05F001C005F0010E34
:1009D000066E052AEEEF04F0D8900636052EECEFF1
:1009E00004F00650FF0A82166CEF05F002BE04EF19
:1009F00005F0025007E1200E015CD8B002EF05F0CF
:100A000004EF05F032EF05F0E80E0126FF0E02229A
:100A100003500410D8B40FEF05F011EF05F021EFEB
:100A200005F001C005F0010E066E052A1AEF05F06B
:100A3000D8900636052E18EF05F0065083126CEF9D
:100A400005F001C005F0010E066E052A2AEF05F03B
:100A5000D8900636052E28EF05F00650FF0A8316BB
:100A60006CEF05F002BE40EF05F0025007E1280EE2
:100A7000015CD8B03EEF05F040EF05F06CEF05F0FB
:100A8000E00E0126FF0E022203500410D8B44BEFF3
:100A900005F04DEF05F05DEF05F001C005F0010E2A
:100AA000066E052A56EF05F0D8900636052E54EF4F
:100AB00005F0065084126CEF05F001C005F0010E40
:100AC000066E052A66EF05F0D8900636052E64EF0F
:100AD00005F00650FF0A84161200010E176E000E74
:100AE000186E000E196E000E1A6E010E1B6E000EAF
:100AF0001C6E000E1D6E000E1E6E000E206E100E7F
:100B00001F6E000E106E010E0F6E000E126E000EA4
:100B1000116EB5EC09F0D4EC07F0D2EC09F0290E17
:100B20000F6E060E106E23EC09F0010E1726000E54
:100B3000182219221A22010E1B26000E1C221D2229
:100B40001E22000E106E010E0F6E000E126E000EB1
:100B5000116EB5EC09F0350E0F6E060E106E23EC1B
:100B600009F0800E056E960E066E980E076E000E4A
:100B7000086E1BC001F01CC002F01DC003F01EC0B7
:100B800004F02EEC08F001C00EF002C00FF003C01C
:100B900010F004C011F00A0E126E000E136E000E5B
:100BA000146E000E156E80EC08F00E50300F40EC05
:100BB0000AF0800E056E960E066E980E076E000EF9
:100BC000086E17C001F018C002F019C003F01AC077
:100BD00004F02EEC08F001C00EF002C00FF003C0CC
:100BE00010F004C011F00A0E126E000E136E000E0B
:100BF000146E000E156E80EC08F00E50300F40ECB5
:100C00000AF039EC07F069EC0AF01F50011809E10D
:100C100020500218D8B40FEF06F011EF06F095EF50
:100C200005F069EC0AF001C01FF002C020F020A21C
:100C30001CEF06F01EEF06F026EF06F0800E1726DA
:100C4000960E1822980E1922000E1A221FAC2BEFB6
:100C500006F02DEF06F035EF06F0800E1B26960EFF
:100C60001C22980E1D22000E1E2220A03AEF06F034
:100C70003CEF06F044EF06F0800E1B5E960E1C5A09
:100C8000980E1D5A000E1E5A1FA849EF06F04BEF92
:100C900006F053EF06F0800E175E960E185A980E67
:100CA000195A000E1A5A1FAE58EF06F05AEF06F006
:100CB00095EF05F0010E4FEC0AF01B0E0F6E060EBD
:100CC000106E23EC09F0000E956E010E836E130E6C
:100CD000026E880E016EC4EC08F0020E836E270EC1
:100CE000026E100E016EC4EC08F0030E836E010E4E
:100CF0004FEC0AF0290E0F6E060E106E23EC09F071
:100D000095EF05F000EF00F002BE92EF06F0025002
:100D100007E1080E015CD8B090EF06F092EF06F004
:100D2000A6EF06F001C003F0010E046E032A9BEF4C
:100D300006F0D8900436032E99EF06F00450801484
:100D4000056E0550016E026A38EF07F002BEB4EF7F
:100D500006F0025007E1100E015CD8B0B2EF06F0C9
:100D6000B4EF06F0CAEF06F001C003F0F80E032658
:100D7000010E046E032ABFEF06F0D8900436032E4E
:100D8000BDEF06F004508114056E0550016E026A35
:100D900038EF07F002BED8EF06F0025007E1180E58
:100DA000015CD8B0D6EF06F0D8EF06F0EEEF06F013
:100DB00001C003F0F00E0326010E046E032AE3EFD8
:100DC00006F0D8900436032EE1EF06F004508214AA
:100DD000056E0550016E026A38EF07F002BEFCEFA7
:100DE00006F0025007E1200E015CD8B0FAEF06F0E1
:100DF000FCEF06F012EF07F001C003F0E80E032647
:100E0000010E046E032A07EF07F0D8900436032E74
:100E100005EF07F004508314056E0550016E026A59
:100E200038EF07F002BE20EF07F0025007E1280E6E
:100E3000015CD8B01EEF07F020EF07F036EF07F0A7
:100E400001C003F0E00E0326010E046E032A2BEF0F
:100E500007F0D8900436032E29EF07F004508414CD
:100E6000056E0550016E026A38EF07F001680268EE
:100E70001200000E246E000E236E000E0E6E000E89
:100E80000D6E0EBE4DEF07F00E5009E1050E0D5C24
:100E9000D8A04DEF07F04FEF07F051EF07F0B2EF9A
:100EA00007F00DC00AF0030E0A26010E0B6E000EAD
:100EB0000C6E0A2A5FEF07F0D8900B360C360A2E1C
:100EC0005CEF07F00BC007F00CC008F04EEC09F027
:100ED000000E026E0A0E016E84EC06F00150021044
:100EE000D8B475EF07F077EF07F08AEF07F00DC081
:100EF0000AF0010E0B6E000E0C6E0A2A83EF07F04B
:100F0000D8900B360C360A2E80EF07F00B502312C8
:100F10000C502412000E026E090E016E84EC06F0D5
:100F200001500210D8B497EF07F099EF07F0AEEF39
:100F300007F00DC00AF0050E0A26010E0B6E000E1A
:100F40000C6E0A2AA7EF07F0D8900B360C360A2E43
:100F5000A4EF07F00B5023120C5024120D4A0E2A56
:100F600041EF07F02350211807E124502218D8A49C
:100F7000BCEF07F0BEEF07F0C1EF07F02C06C7EF9C
:100F800007F0010E2C6E23C021F024C022F02C505B
:100F9000D8A4CDEF07F0CFEF07F0D3EF07F021C0D3
:100FA00025F022C026F01200000E026E1C0E016E0B
:100FB000000E046E000E036E1FEC03F0000E026EB6
:100FC0001D0E016E000E046E000E036E1FEC03F08A
:100FD00096EC09F0000E026E0F0E016EEBEC09F0BC
:100FE000000E0B6E000E0A6E030E2DEC0AF0000EC2
:100FF000026E050E016EEBEC09F0000E0B6E000E9A
:101000000A6E030E2DEC0AF0000E026EA00E016EA9
:101010006EEC0AF0000E0B6E000E0A6E030E2DEC45
:101020000AF0000E026EA00E016E6EEC0AF0000EC9
:101030000B6E000E0A6E020E2DEC0AF0000E026E10
:101040000A0E016EEBEC09F0280E4FEC0AF00C0EC4
:101050004FEC0AF0010E4FEC0AF01200000E096E80
:10106000000E0A6E000E0B6E000E0C6E0550061080
:1010700007100810D8B43FEF08F041EF08F077EF01
:1010800008F0010E0D6E4BEF08F0D89005360636CD
:10109000073608360D2A08AE50EF08F052EF08F078
:1010A00045EF08F0D89009360A360B360C36055055
:1010B000015C065002580750035808500458D8A045
:1010C00064EF08F066EF08F06FEF08F00550015E7E
:1010D0000650025A0750035A0850045A0980D89003
:1010E00008320732063205320D2E52EF08F009C0E1
:1010F00001F00AC002F00BC003F00CC004F01200B3
:101100001250131014101510D8B489EF08F08BEF9B
:1011100008F0BBEF08F0010E166E95EF08F0D890BE
:101120001236133614361536162A15AE9AEF08F015
:101130009CEF08F08FEF08F012500E5C13500F5820
:101140001450105815501158D8A0A9EF08F0ABEF63
:1011500008F0B3EF08F012500E5E13500F5A1450FF
:10116000105A1550115AD8901532143213321232C7
:10117000162E9CEF08F00EC00EF00FC00FF010C03E
:1011800010F011C011F01200000E046E000E036E7C
:10119000EAEF08F0000E056E280E0564D2EF08F0A5
:1011A000D4EF08F0D6EF08F0E8EF08F0000E066E76
:1011B000020E0664DEEF08F0E0EF08F0E2EF08F060
:1011C000E5EF08F0062AD8EF08F0052ACCEF08F082
:1011D000034A042A0150035C02500458D8A0F3EFDC
:1011E00008F0F5EF08F0CAEF08F012000D6E0DC020
:1011F0000CF00C3A0F0E0C160C50076E086A4EECF1
:1012000009F0000E026E1D0E016E0AC003F00BC045
:1012100004F046EC04F075EC09F00DC00CF00F0E74
:101220000C160C50076E086A4EEC09F0000E026EA8
:101230001D0E016E0AC003F00BC004F046EC04F072
:1012400075EC09F01200000E146E000E136E39EFEB
:1012500009F013500F24116E14501020126E11C09B
:10126000F6FF12C0F7FF0800F55040EC0AF0134AF1
:10127000142A13500F24116E14501020126E11C036
:10128000F6FF12C0F7FF0800F5500009D8A44BEF95
:1012900009F04DEF09F029EF09F01200000E026E7F
:1012A000080E016E000E046E000E036E46EC04F094
:1012B000000E096E000E026E1E0E016E800E0714E7
:1012C000036E046A46EC04F018EC0AF0D890073676
:1012D0000836092A070E096470EF09F072EF09F069
:1012E0005AEF09F003EC0AF01200000E026E1C0E19
:1012F000016E000E046E010E036E46EC04F0000E4B
:10130000026E050E016E6EEC0AF0000E026E1C0EEF
:10131000016E000E046E000E036E46EC04F0000E2B
:10132000026E050E016E6EEC0AF01200000E026EE7
:101330001F0E016E000E046E000E036E1FEC03F014
:10134000000E026E080E016E000E046E000E036E9B
:101350001FEC03F0000E026E1E0E016E000E046EF6
:10136000000E036E1FEC03F012000F501010D8A4F3
:10137000BCEF09F0BEEF09F0C3EF09F011500F0BFD
:10138000800F4FEC0AF00F041010D8A4CAEF09F038
:10139000CCEF09F0D1EF09F011500F0BC00F4FEC5B
:1013A0000AF0120096EC09F0000E026E0A0E016EB1
:1013B000000E046E010E036E1FEC03F0000E026EB1
:1013C000090E016E000E046E010E036E1FEC03F099
:1013D0000C0EC16E1200000E056E000E046EF3EFCF
:1013E00009F0044A052A0150045C0550800A036E86
:1013F0000250800A0358D8A000EF0AF002EF0AF06A
:10140000F1EF09F01200000E026E1F0E016E000EC9
:10141000046E010E036E46EC04F0000E026E1F0E09
:10142000016E000E046E000E036E46EC04F0120016
:10143000000E026E080E016E000E046E010E036EA9
:1014400046EC04F0000E026E080E016E000E046EF3
:10145000000E036E46EC04F012000C6E0CC007F098
:10146000086A4EEC09F0000E026E1D0E016E0AC0F5
:1014700003F00BC004F046EC04F075EC09F0120028
:101480000E6E000E0B6E010E0A6E0E50F6EC08F09A
:10149000000E026E500E016E6EEC0AF012000E6E1F
:1014A000000E0B6E000E0A6E0E50F6EC08F0000EE9
:1014B000026E020E016EEBEC09F0120000EE21F05C
:1014C0000C0EEE6AE806FDE1000EF86E00016DEF0D
:0E14D00005F025C001F026C002F01200120047
:020000040020DA
:08000000FFFFFFFFFFFFFFFF00
:020000040030CA
:0E000000FF027100FF8380FF0FC00FE00F4072
:00000001FF
